000000000000120160507TELEBRASILIA   DF001235         TRIBUNAL SUPERIOR DO TRABALHOCLI        00509968000148 9021668586               2016051920160506                                                                                                                                                                                                        .
10000000000029021668586               20160519201605069007221308               61000BRASILIA                 6132455788  10  ASSINANTE COMUM-NAO RESID          NR                        20160402201605012016040220160501PULSO0000000+0000000000000+0000000000000  +0000000000910+0000000001028000000123200+0000000002944                                   .
300000000000320160519201605069007221308               610006132455788  NR               2016040262009ANAPOLIS                 GO0 14BRASILTELECOM          62  33115335    000008DDDINTER-SETOR 14                                    1043101KTARIFA NORMAL - TT       03+03165000000000000400411                                                            .
300000000000420160519201605069007221308               610006132455788  NR               2016040441000CURITIBA                 PR0 14BRASILTELECOM          41  30776789    000091DDDINTER-SETOR 14                                    0906281DTARIFA DE HORARIO DE PICO04+03165000000000005200411                                                            .
300000000000520160519201605069007221308               610006132455788  NR               2016040441000CURITIBA                 PR0 14BRASILTELECOM          41  30776789    000054DDDINTER-SETOR 14                                    0916161DTARIFA DE HORARIO DE PICO04+03165000000000003100411                                                            .
300000000000620160519201605069007221308               610006132455788  NR               2016040411000SAO PAULO                SP0 14BRASILTELECOM          11  55210211    000005DDDINTER-REGIAO 14                                   1052021DTARIFA DE HORARIO DE PICO04+03165000000000000200421                                                            .
300000000000720160519201605069007221308               610006132455788  NR               2016041341000CURITIBA                 PR0 14BRASILTELECOM          41  30776789    000247DDDINTER-SETOR 14                                    1049461DTARIFA DE HORARIO DE PICO04+03165000000000014300411                                                            .
300000000000820160519201605069007221308               610006132455788  NR               2016041911000SAO PAULO                SP0 14BRASILTELECOM          11  21490188    000005DDDINTER-REGIAO 14                                   1622091DTARIFA DE HORARIO DE PICO04+03165000000000000200421                                                            .
300000000000920160519201605069007221308               610006132455788  NR               2016041911000SAO PAULO                SP0 14BRASILTELECOM          11  59087222    000004DDDINTER-REGIAO 14                                   1623051DTARIFA DE HORARIO DE PICO04+03165000000000000200421                                                            .
300000000001020160519201605069007221308               610006132455788  NR               2016041911000SAO PAULO                SP0 14BRASILTELECOM          11  21490188    000006DDDINTER-REGIAO 14                                   1623511DTARIFA DE HORARIO DE PICO04+03165000000000000300421                                                            .
300000000001120160519201605069007221308               610006132455788  NR               2016041911000SAO PAULO                SP0 14BRASILTELECOM          11  21087666    000016DDDINTER-REGIAO 14                                   1624471DTARIFA DE HORARIO DE PICO04+03165000000000000900421                                                            .
300000000001220160519201605069007221308               610006132455788  NR               2016042711000SAO PAULO                SP0 14BRASILTELECOM          11  55729505    000002DDDINTER-REGIAO 14                                   1249001KTARIFA NORMAL - TT       04+03165000000000000200421                                                            .
300000000001320160519201605069007221308               610006132455788  NR               2016042911592SANTOS                   SP0 14BRASILTELECOM          13  32849705    000142DDDINTER-REGIAO 14                                   1315571KTARIFA NORMAL - TT       04+03165000000000008200421                                                            .
300000000001420160519201605069007221308               610006132455788  NR               2016033061000BRASILIA                 DF0 14BRASILTELECOM          61  81979267    000009VC1COM. LOCAL VC1                                    1334371KTARIFA NORMAL - TT       01+03165000000000007320001                                                            .
300000000001520160519201605069007221308               610006132455788  NR               2016033061000BRASILIA                 DF0 14BRASILTELECOM          61  99826571    000008VC1COM. LOCAL VC1                                    1607391KTARIFA NORMAL - TT       01+03165000000000006520001                                                            .
300000000001620160519201605069007221308               610006132455788  NR               2016033161000BRASILIA                 DF0 14BRASILTELECOM          61  83581104    000017VC1COM. LOCAL VC1                                    1500201KTARIFA NORMAL - TT       01+03165000000000013820001                                                            .
300000000001720160519201605069007221308               610006132455788  NR               2016033161000BRASILIA                 DF0 14BRASILTELECOM          61  81653885    000002VC1COM. LOCAL VC1                                    1503201KTARIFA NORMAL - TT       01+03165000000000004020001                                                            .
300000000001820160519201605069007221308               610006132455788  NR               2016040461000BRASILIA                 DF0 14BRASILTELECOM          61  99735847    000015VC1COM. LOCAL VC1                                    1959551KTARIFA NORMAL - TT       01+03165000000000012220001                                                            .
300000000001920160519201605069007221308               610006132455788  NR               2016040561000BRASILIA                 DF0 14BRASILTELECOM          61  81653885    000006VC1COM. LOCAL VC1                                    1509541KTARIFA NORMAL - TT       01+03165000000000004820001                                                            .
300000000002020160519201605069007221308               610006132455788  NR               2016040661000BRASILIA                 DF0 14BRASILTELECOM          61  99735847    000062VC1COM. LOCAL VC1                                    2001471KTARIFA NORMAL - TT       01+03165000000000050420001                                                            .
300000000002120160519201605069007221308               610006132455788  NR               2016041061000BRASILIA                 DF0 14BRASILTELECOM          61  95556316    000007VC1COM. LOCAL VC1                                    2021431BTARIFA REDUZIDA - TT     01+03165000000000005620002                                                            .
300000000002220160519201605069007221308               610006132455788  NR               2016041161000BRASILIA                 DF0 14BRASILTELECOM          61  96781013    000019VC1COM. LOCAL VC1                                    1040041KTARIFA NORMAL - TT       01+03165000000000015420001                                                            .
300000000002320160519201605069007221308               610006132455788  NR               2016041161000BRASILIA                 DF0 14BRASILTELECOM          61  95556316    000002VC1COM. LOCAL VC1                                    1043221KTARIFA NORMAL - TT       01+03165000000000004020001                                                            .
300000000002420160519201605069007221308               610006132455788  NR               2016041761000BRASILIA                 DF0 14BRASILTELECOM          61  92627977    000002VC1COM. LOCAL VC1                                    2150041BTARIFA REDUZIDA - TT     01+03165000000000004020002                                                            .
300000000002520160519201605069007221308               610006132455788  NR               2016041861000BRASILIA                 DF0 14BRASILTELECOM          61  95482671    000006VC1COM. LOCAL VC1                                    1211081KTARIFA NORMAL - TT       01+03165000000000004820001                                                            .
300000000002620160519201605069007221308               610006132455788  NR               2016041861000BRASILIA                 DF0 14BRASILTELECOM          61  92140689    000004VC1COM. LOCAL VC1                                    1359491KTARIFA NORMAL - TT       01+03165000000000004020001                                                            .
300000000002720160519201605069007221308               610006132455788  NR               2016041861000BRASILIA                 DF0 14BRASILTELECOM          61  95556316    000006VC1COM. LOCAL VC1                                    1940161KTARIFA NORMAL - TT       01+03165000000000004820001                                                            .
300000000002820160519201605069007221308               610006132455788  NR               2016041961000BRASILIA                 DF0 14BRASILTELECOM          61  95556316    000008VC1COM. LOCAL VC1                                    0913361KTARIFA NORMAL - TT       01+03165000000000006520001                                                            .
300000000002920160519201605069007221308               610006132455788  NR               2016041961000BRASILIA                 DF0 14BRASILTELECOM          61  93330922    000009VC1COM. LOCAL VC1                                    1652361KTARIFA NORMAL - TT       01+03165000000000007320001                                                            .
300000000003020160519201605069007221308               610006132455788  NR               2016042261000BRASILIA                 DF0 14BRASILTELECOM          61  93330922    000021VC1COM. LOCAL VC1                                    1002111KTARIFA NORMAL - TT       01+03165000000000017020001                                                            .
300000000003120160519201605069007221308               610006132455788  NR               2016042261000BRASILIA                 DF0 14BRASILTELECOM          61  98490969    000004VC1COM. LOCAL VC1                                    1005291KTARIFA NORMAL - TT       01+03165000000000004020001                                                            .
300000000003220160519201605069007221308               610006132455788  NR               2016042561000BRASILIA                 DF0 14BRASILTELECOM          61  92627977    000001VC1COM. LOCAL VC1                                    0634171BTARIFA REDUZIDA - TT     01+03165000000000004020002                                                            .
300000000003320160519201605069007221308               610006132455788  NR               2016042661000BRASILIA                 DF0 14BRASILTELECOM          61  99735847    000035VC1COM. LOCAL VC1                                    0937171KTARIFA NORMAL - TT       01+03165000000000028420001                                                            .
300000000003420160519201605069007221308               610006132455788  NR               2016042761000BRASILIA                 DF0 14BRASILTELECOM          61  95556316    000016VC1COM. LOCAL VC1                                    0757101KTARIFA NORMAL - TT       01+03165000000000013020001                                                            .
300000000003520160519201605069007221308               610006132455788  NR               2016042761000BRASILIA                 DF0 14BRASILTELECOM          61  82293582    000006VC1COM. LOCAL VC1                                    1229071KTARIFA NORMAL - TT       01+03165000000000004820001                                                            .
300000000003620160519201605069007221308               610006132455788  NR               2016042961000BRASILIA                 DF0 14BRASILTELECOM          61  95556316    000012VC1COM. LOCAL VC1                                    1443321KTARIFA NORMAL - TT       01+03165000000000009720001                                                            .
300000000003720160519201605069007221308               610006132455788  NR               2016040411000SAO PAULO                SP0 14BRASILTELECOM          11  942442966   000020VC3INTERURBANO VC3                                   1058291KTARIFA NORMAL - TT       03+03165000000000011420207                                                            .
300000000003820160519201605069007221308               610006132455788  NR               2016040411000SAO PAULO                SP0 14BRASILTELECOM          11  993899758   000045VC3INTERURBANO VC3                                   1225001KTARIFA NORMAL - TT       03+03165000000000025620207                                                            .
300000000003920160519201605069007221308               610006132455788  NR               2016041861000BRASILIA                 DF0 14BRASILTELECOM          61  95482671    000014DLCDLC CELULAR VC1                                   1203531KTARIFA NORMAL - TT       01+03165000000000011320301                                                            .
300000000004020160519201605069007221308               610006132455788  NR               2016041861000BRASILIA                 DF0 14BRASILTELECOM          61  95482671    000009DLCDLC CELULAR VC1                                   1205551KTARIFA NORMAL - TT       01+03165000000000007320301                                                            .
500000000004120160519201605069007221308               9021668586               610006132455788  DSCDESCONTOS DA CIA                                                                -0000000000000000000000000000307201605061605062016050616050600199                                                                                                         .
10000000000429021668586               20160519201605069021668608               61000BRASILIA                 6133464329  10  ASSINANTE COMUM-NAO RESID          NR                        20160402201605012016040220160501PULSO0000000+0000000000000+0000000000000  +0000000000124+0000000000140000000123201+0000000000404                                   .
300000000004320160519201605069021668608               610006133464329  NR               2016040661000BRASILIA                 DF0 14BRASILTELECOM          61  86561522    000004DLCDLC CELULAR VC1                                   1010141KTARIFA NORMAL - TT       01+03165000000000004020301                                                            .
300000000004420160519201605069021668608               610006133464329  NR               2016041461000BRASILIA                 DF0 14BRASILTELECOM          61  98677198    000016DLCDLC CELULAR VC1                                   1037121KTARIFA NORMAL - TT       01+03165000000000013020301                                                            .
300000000004520160519201605069021668608               610006133464329  NR               2016041561000BRASILIA                 DF0 14BRASILTELECOM          61  86561522    000002DLCDLC CELULAR VC1                                   0933351KTARIFA NORMAL - TT       01+03165000000000004020301                                                            .
300000000004620160519201605069021668608               610006133464329  NR               2016042261000BRASILIA                 DF0 14BRASILTELECOM          61  91452075    000029DLCDLC CELULAR VC1                                   1205581KTARIFA NORMAL - TT       01+03165000000000023620301                                                            .
500000000004720160519201605069021668608               9021668586               610006133464329  DSCDESCONTOS DA CIA                                                                -0000000000000000000000000000042201605061605062016050616050600199                                                                                                         .
10000000000489021668586               20160519201605069048421808               61000BRASILIA                 6133462942  10  ASSINANTE COMUM-NAO RESID          NR                        20160402201605012016040220160501PULSO0000000+0000000000000+0000000000000  +0000000000873+0000000000986000000123202+0000000002827                                   .
300000000004920160519201605069048421808               610006133462942  NR               2016040621214PETROPOLIS               RJ0 14BRASILTELECOM          24  22434245    000064DDDINTER-REGIAO 14                                   2005451KTARIFA NORMAL - TT       04+03165000000000003700421                                                            .
300000000005020160519201605069048421808               610006133462942  NR               2016040621000RIO DE JANEIRO           RJ0 14BRASILTELECOM          21  25478390    000085DDDINTER-REGIAO 14                                   2016211KTARIFA NORMAL - TT       04+03165000000000004900421                                                            .
300000000005120160519201605069048421808               610006133462942  NR               2016041121214PETROPOLIS               RJ0 14BRASILTELECOM          24  22434245    000119DDDINTER-REGIAO 14                                   1918111KTARIFA NORMAL - TT       04+03165000000000006900421                                                            .
300000000005220160519201605069048421808               610006133462942  NR               2016041121188NITEROI                  RJ0 14BRASILTELECOM          21  26190654    000210DDDINTER-REGIAO 14                                   1932021KTARIFA NORMAL - TT       04+03165000000000012200421                                                            .
300000000005320160519201605069048421808               610006133462942  NR               2016041121214PETROPOLIS               RJ0 14BRASILTELECOM          24  22423441    000168DDDINTER-REGIAO 14                                   2006031KTARIFA NORMAL - TT       04+03165000000000009700421                                                            .
300000000005420160519201605069048421808               610006133462942  NR               2016041221214PETROPOLIS               RJ0 14BRASILTELECOM          24  22420743    000363DDDINTER-REGIAO 14                                   2036221MTARIFA DE HORARIO MISTO  04+03165000000000021100421                                                            .
300000000005520160519201605069048421808               610006133462942  NR               2016041421000RIO DE JANEIRO           RJ0 14BRASILTELECOM          21  25478390    000060DDDINTER-REGIAO 14                                   1718261DTARIFA DE HORARIO DE PICO04+03165000000000003400421                                                            .
300000000005620160519201605069048421808               610006133462942  NR               2016041721214PETROPOLIS               RJ0 14BRASILTELECOM          24  22423441    000022DDDINTER-REGIAO 14                                   2040431BTARIFA REDUZIDA - TT     04+03165000000000001200421                                                            .
300000000005720160519201605069048421808               610006133462942  NR               2016041821214PETROPOLIS               RJ0 14BRASILTELECOM          24  22420546    000133DDDINTER-REGIAO 14                                   0816281KTARIFA NORMAL - TT       04+03165000000000007700421                                                            .
300000000005820160519201605069048421808               610006133462942  NR               2016041921000RIO DE JANEIRO           RJ0 14BRASILTELECOM          21  22461180    000004DDDINTER-REGIAO 14                                   2151301BTARIFA REDUZIDA - TT     04+03165000000000000200421                                                            .
300000000005920160519201605069048421808               610006133462942  NR               2016041921000RIO DE JANEIRO           RJ0 14BRASILTELECOM          21  22499991    000062DDDINTER-REGIAO 14                                   2157181BTARIFA REDUZIDA - TT     04+03165000000000003600421                                                            .
300000000006020160519201605069048421808               610006133462942  NR               2016042021000RIO DE JANEIRO           RJ0 14BRASILTELECOM          21  22461180    000336DDDINTER-REGIAO 14                                   1956541KTARIFA NORMAL - TT       04+03165000000000019500421                                                            .
300000000006120160519201605069048421808               610006133462942  NR               2016042121000RIO DE JANEIRO           RJ0 14BRASILTELECOM          21  25214653    000005DDDINTER-REGIAO 14                                   1422141BTARIFA REDUZIDA - TT     04+03165000000000000200421                                                            .
300000000006220160519201605069048421808               610006133462942  NR               2016042121000RIO DE JANEIRO           RJ0 14BRASILTELECOM          21  25214653    000325DDDINTER-REGIAO 14                                   1505431BTARIFA REDUZIDA - TT     04+03165000000000018900421                                                            .
300000000006320160519201605069048421808               610006133462942  NR               2016042532549UBERLANDIA               MG0 14BRASILTELECOM          34  32573813    000033DDDINTER-REGIAO 14                                   1803551KTARIFA NORMAL - TT       04+03165000000000001900421                                                            .
300000000006420160519201605069048421808               610006133462942  NR               2016042521000RIO DE JANEIRO           RJ0 14BRASILTELECOM          21  25214653    000075DDDINTER-REGIAO 14                                   2019421KTARIFA NORMAL - TT       04+03165000000000004300421                                                            .
300000000006520160519201605069048421808               610006133462942  NR               2016042621214PETROPOLIS               RJ0 14BRASILTELECOM          24  22424228    000002DDDINTER-REGIAO 14                                   1141311DTARIFA DE HORARIO DE PICO04+03165000000000000200421                                                            .
300000000006620160519201605069048421808               610006133462942  NR               2016042721214PETROPOLIS               RJ0 14BRASILTELECOM          24  22374486    000093DDDINTER-REGIAO 14                                   2020061KTARIFA NORMAL - TT       04+03165000000000005400421                                                            .
300000000006720160519201605069048421808               610006133462942  NR               2016042721214PETROPOLIS               RJ0 14BRASILTELECOM          24  22423441    000031DDDINTER-REGIAO 14                                   2133421BTARIFA REDUZIDA - TT     04+03165000000000001800421                                                            .
300000000006820160519201605069048421808               610006133462942  NR               2016042921214PETROPOLIS               RJ0 14BRASILTELECOM          24  22424228    000120DDDINTER-REGIAO 14                                   0945071DTARIFA DE HORARIO DE PICO04+03165000000000006900421                                                            .
300000000006920160519201605069048421808               610006133462942  NR               2016041210618CANADA                     0014BRASILTELECOM       00116  047807548   000001DDICHAM INTERN.FIX                                   1738581KTARIFA NORMAL - TT       99+03165000000000012201920                                                            .
300000000007020160519201605069048421808               610006133462942  NR               2016041210618CANADA                     0014BRASILTELECOM       00116  047807548   000004DDICHAM INTERN.FIX                                   1749381KTARIFA NORMAL - TT       99+03165000000000012201920                                                            .
300000000007120160519201605069048421808               610006133462942  NR               2016041210618CANADA                     0014BRASILTELECOM       00116  047807548   000001DDICHAM INTERN.FIX                                   1754241KTARIFA NORMAL - TT       99+03165000000000012201920                                                            .
300000000007220160519201605069048421808               610006133462942  NR               2016042510618CANADA                     0014BRASILTELECOM       00116  047807548   000021DDICHAM INTERN.FIX                                   1747251KTARIFA NORMAL - TT       99+03165000000000025601920                                                            .
300000000007320160519201605069048421808               610006133462942  NR               2016040421331VOLTA REDONDA            RJ0 14BRASILTELECOM          24  999300495   000008VC3INTERURBANO VC3                                   1024591KTARIFA NORMAL - TT       03+03165000000000004520201                                                            .
300000000007420160519201605069048421808               610006133462942  NR               2016041021331VOLTA REDONDA            RJ0 14BRASILTELECOM          24  999300495   000046VC3INTERURBANO VC3                                   2150421BTARIFA REDUZIDA - TT     03+03165000000000026220202                                                            .
300000000007520160519201605069048421808               610006133462942  NR               2016041221331VOLTA REDONDA            RJ0 14BRASILTELECOM          24  999300495   000078VC3INTERURBANO VC3                                   0625211BTARIFA REDUZIDA - TT     03+03165000000000044520202                                                            .
300000000007620160519201605069048421808               610006133462942  NR               2016041821331VOLTA REDONDA            RJ0 14BRASILTELECOM          24  999300495   000005VC3INTERURBANO VC3                                   0730461KTARIFA NORMAL - TT       03+03165000000000002820201                                                            .
300000000007720160519201605069048421808               610006133462942  NR               2016042521331VOLTA REDONDA            RJ0 14BRASILTELECOM          24  999300495   000019VC3INTERURBANO VC3                                   0758061KTARIFA NORMAL - TT       03+03165000000000010820201                                                            .
300000000007820160519201605069048421808               610006133462942  NR               2016050121331VOLTA REDONDA            RJ0 14BRASILTELECOM          24  999300495   000041VC3INTERURBANO VC3                                   0931001BTARIFA REDUZIDA - TT     03+03165000000000023420202                                                            .
300000000007920160519201605069048421808               610006133462942  NR               2016041661000BRASILIA                 DF0 14BRASILTELECOM          61  91906238    000003DLCDLC CELULAR VC1                                   0933491KTARIFA NORMAL - TT       01+03165000000000004020301                                                            .
500000000008020160519201605069048421808               9021668586               610006133462942  DSCDESCONTOS DA CIA                                                                -0000000000000000000000000000294201605061605062016050616050600199                                                                                                         .
10000000000819021668586               20160519201605069052452950               61000BRASILIA                 6133662176  10  ASSINANTE COMUM-NAO RESID          NR                        20160402201605012016040220160501PULSO0000000+0000000000000+0000000000000  +0000000001666+0000000001883000000123203+0000000005391                                   .
300000000008220160519201605069052452950               610006133662176  NR               2016041911451PAULINIA                 SP0 14BRASILTELECOM          19  38333932    000002DDDINTER-REGIAO 14                                   1241301KTARIFA NORMAL - TT       04+03165000000000000200421                                                            .
300000000008320160519201605069052452950               610006133662176  NR               2016042185330MONSENHOR TABOSA         CE0 14BRASILTELECOM          88  36962100    000131DDDINTER-REGIAO 14                                   0812251BTARIFA REDUZIDA - TT     04+03165000000000007600421                                                            .
300000000008420160519201605069052452950               610006133662176  NR               2016042741000CURITIBA                 PR0 14BRASILTELECOM          41  32097243    000026DDDINTER-SETOR 14                                    1343171KTARIFA NORMAL - TT       04+03165000000000001500411                                                            .
300000000008520160519201605069052452950               610006133662176  NR               2016042811451PAULINIA                 SP0 14BRASILTELECOM          19  38333932    000002DDDINTER-REGIAO 14                                   0851531KTARIFA NORMAL - TT       04+03165000000000000200421                                                            .
300000000008620160519201605069052452950               610006133662176  NR               2016043041000CURITIBA                 PR0 14BRASILTELECOM          41  32097243    000111DDDINTER-SETOR 14                                    2026361BTARIFA REDUZIDA - TT     04+03165000000000006400411                                                            .
300000000008720160519201605069052452950               610006133662176  NR               2016033011135CAMPINAS                 SP0 14BRASILTELECOM          19  991909453   000055VC3INTERURBANO VC3                                   1018411KTARIFA NORMAL - TT       03+03165000000000031320207                                                            .
300000000008820160519201605069052452950               610006133662176  NR               2016040585000FORTALEZA                CE0 14BRASILTELECOM          85  999699229   000002VC3INTERURBANO VC3                                   0831131KTARIFA NORMAL - TT       03+03165000000000002820201                                                            .
300000000008920160519201605069052452950               610006133662176  NR               2016040847101LAGES                    SC0 14BRASILTELECOM          49  99372377    000115VC3INTERURBANO VC3                                   1223531KTARIFA NORMAL - TT       03+03165000000000065620205                                                            .
300000000009020160519201605069052452950               610006133662176  NR               2016040985000FORTALEZA                CE0 14BRASILTELECOM          85  999699229   000092VC3INTERURBANO VC3                                   2202441BTARIFA REDUZIDA - TT     03+03165000000000052520202                                                            .
300000000009120160519201605069052452950               610006133662176  NR               2016041266000CAMPO GRANDE             MS0 14BRASILTELECOM          67  99899995    000003VC2INTERURBANO VC2                                   1604311KTARIFA NORMAL - TT       02+03165000000000002820101                                                            .
300000000009220160519201605069052452950               610006133662176  NR               2016041266000CAMPO GRANDE             MS0 14BRASILTELECOM          67  99899995    000013VC2INTERURBANO VC2                                   1605101KTARIFA NORMAL - TT       02+03165000000000007420101                                                            .
300000000009320160519201605069052452950               610006133662176  NR               2016041541000CURITIBA                 PR0 14BRASILTELECOM          41  96855293    000087VC3INTERURBANO VC3                                   1950011KTARIFA NORMAL - TT       03+03165000000000049620205                                                            .
300000000009420160519201605069052452950               610006133662176  NR               2016041741000CURITIBA                 PR0 14BRASILTELECOM          41  96855293    000075VC3INTERURBANO VC3                                   1151571BTARIFA REDUZIDA - TT     03+03165000000000042820206                                                            .
300000000009520160519201605069052452950               610006133662176  NR               2016041885000FORTALEZA                CE0 14BRASILTELECOM          85  999699229   000001VC3INTERURBANO VC3                                   0845561KTARIFA NORMAL - TT       03+03165000000000002820201                                                            .
300000000009620160519201605069052452950               610006133662176  NR               2016041885000FORTALEZA                CE0 14BRASILTELECOM          85  999699229   000185VC3INTERURBANO VC3                                   0917501KTARIFA NORMAL - TT       03+03165000000000105620201                                                            .
300000000009720160519201605069052452950               610006133662176  NR               2016042141000CURITIBA                 PR0 14BRASILTELECOM          41  99239111    000013VC3INTERURBANO VC3                                   1836141BTARIFA REDUZIDA - TT     03+03165000000000007420206                                                            .
300000000009820160519201605069052452950               610006133662176  NR               2016042166000CAMPO GRANDE             MS0 14BRASILTELECOM          67  96283817    000251VC2INTERURBANO VC2                                   1838571BTARIFA REDUZIDA - TT     02+03165000000000143220102                                                            .
300000000009920160519201605069052452950               610006133662176  NR               2016042241000CURITIBA                 PR0 14BRASILTELECOM          41  96855293    000115VC3INTERURBANO VC3                                   1721391KTARIFA NORMAL - TT       03+03165000000000065620205                                                            .
500000000010020160519201605069052452950               9021668586               610006133662176  DSCDESCONTOS DA CIA                                                                -0000000000000000000000000000562201605061605062016050616050600199                                                                                                         .
10000000001019021668586               20160519201605069052453034               61000BRASILIA                 6133664687  10  ASSINANTE COMUM-NAO RESID          NR                        20160402201605012016040220160501PULSO0000000+0000000000000+0000000000000  +0000000002019+0000000002282000000123204+0000000006531                                   .
300000000010220160519201605069052453034               610006133664687  NR               2016040885330MONSENHOR TABOSA         CE0 14BRASILTELECOM          88  36962100    000085DDDINTER-REGIAO 14                                   2056231MTARIFA DE HORARIO MISTO  04+03165000000000004900421                                                            .
300000000010320160519201605069052453034               610006133664687  NR               2016041866000CAMPO GRANDE             MS0 14BRASILTELECOM          67  33441075    000222DDDINTER-SETOR 14                                    0846251MTARIFA DE HORARIO MISTO  04+03165000000000012900411                                                            .
300000000010420160519201605069052453034               610006133664687  NR               2016041911451PAULINIA                 SP0 14BRASILTELECOM          19  38333932    000416DDDINTER-REGIAO 14                                   1242081KTARIFA NORMAL - TT       04+03165000000000024200421                                                            .
300000000010520160519201605069052453034               610006133664687  NR               2016042641000CURITIBA                 PR0 14BRASILTELECOM          41  32097243    000181DDDINTER-SETOR 14                                    1935131KTARIFA NORMAL - TT       04+03165000000000010500411                                                            .
300000000010620160519201605069052453034               610006133664687  NR               2016042741000CURITIBA                 PR0 14BRASILTELECOM          41  32097243    000086DDDINTER-SETOR 14                                    1852351KTARIFA NORMAL - TT       04+03165000000000005000411                                                            .
300000000010720160519201605069052453034               610006133664687  NR               2016042811451PAULINIA                 SP0 14BRASILTELECOM          19  38333932    000001DDDINTER-REGIAO 14                                   0929231DTARIFA DE HORARIO DE PICO04+03165000000000000200421                                                            .
300000000010820160519201605069052453034               610006133664687  NR               2016042941000CURITIBA                 PR0 14BRASILTELECOM          41  32035632    000166DDDINTER-SETOR 14                                    0807081KTARIFA NORMAL - TT       04+03165000000000009600411                                                            .
300000000010920160519201605069052453034               610006133664687  NR               2016050185330MONSENHOR TABOSA         CE0 14BRASILTELECOM          88  36962100    000319DDDINTER-REGIAO 14                                   0829591BTARIFA REDUZIDA - TT     04+03165000000000018500421                                                            .
300000000011020160519201605069052453034               610006133664687  NR               2016040341000CURITIBA                 PR0 14BRASILTELECOM          41  96855293    000078VC3INTERURBANO VC3                                   1900331BTARIFA REDUZIDA - TT     03+03165000000000044520206                                                            .
300000000011120160519201605069052453034               610006133664687  NR               2016040462000GOIANIA                  GO0 14BRASILTELECOM          62  85616840    000036VC2INTERURBANO VC2                                   0822171KTARIFA NORMAL - TT       02+03165000000000020520101                                                            .
300000000011220160519201605069052453034               610006133664687  NR               2016041211000SAO PAULO                SP0 14BRASILTELECOM          11  984288627   000130VC3INTERURBANO VC3                                   1550481KTARIFA NORMAL - TT       03+03165000000000074220207                                                            .
300000000011320160519201605069052453034               610006133664687  NR               2016041241000CURITIBA                 PR0 14BRASILTELECOM          41  96855293    000299VC3INTERURBANO VC3                                   1709241KTARIFA NORMAL - TT       03+03165000000000170620205                                                            .
300000000011420160519201605069052453034               610006133664687  NR               2016041885000FORTALEZA                CE0 14BRASILTELECOM          85  999699229   000068VC3INTERURBANO VC3                                   0910361KTARIFA NORMAL - TT       03+03165000000000038820201                                                            .
300000000011520160519201605069052453034               610006133664687  NR               2016042166000CAMPO GRANDE             MS0 14BRASILTELECOM          67  96283817    000001VC2INTERURBANO VC2                                   1838291BTARIFA REDUZIDA - TT     02+03165000000000002820102                                                            .
300000000011620160519201605069052453034               610006133664687  NR               2016042166000CAMPO GRANDE             MS0 14BRASILTELECOM          67  96283817    000370VC2INTERURBANO VC2                                   1904481BTARIFA REDUZIDA - TT     02+03165000000000211220102                                                            .
300000000011720160519201605069052453034               610006133664687  NR               2016042641000CURITIBA                 PR0 14BRASILTELECOM          41  99160688    000011VC3INTERURBANO VC3                                   1853181KTARIFA NORMAL - TT       03+03165000000000006220205                                                            .
300000000011820160519201605069052453034               610006133664687  NR               2016040261000BRASILIA                 DF0 14BRASILTELECOM          61  82585789    000007DLCDLC CELULAR VC1                                   1726111KTARIFA NORMAL - TT       01+03165000000000005620301                                                            .
300000000011920160519201605069052453034               610006133664687  NR               2016041366000CAMPO GRANDE             MS0 14BRASILTELECOM          67  99899995    000003ACBACB CELULAR VC2                                   1625411KTARIFA NORMAL - TT       02+03165000000000002820701                                                            .
300000000012020160519201605069052453034               610006133664687  NR               2016041366000CAMPO GRANDE             MS0 14BRASILTELECOM          67  99899995    000102ACBACB CELULAR VC2                                   1627061KTARIFA NORMAL - TT       02+03165000000000058220701                                                            .
500000000012120160519201605069052453034               9021668586               610006133664687  DSCDESCONTOS DA CIA                                                                -0000000000000000000000000000681201605061605062016050616050600199                                                                                                         .
10000000001229021668586               20160519201605069053843596               61000BRASILIA                 6133637545  10  ASSINANTE COMUM-NAO RESID          NR                        20160402201605012016040220160501PULSO0000000+0000000000000+0000000000000  +0000000000007+0000000000007000000123205+0000000000024                                   .
300000000012320160519201605069053843596               610006133637545  NR               2016040711892GUARULHOS                SP0 14BRASILTELECOM          11  24120810    000045DDDINTER-REGIAO 14                                   1212041KTARIFA NORMAL - TT       04+03165000000000002600421                                                            .
500000000012420160519201605069053843596               9021668586               610006133637545  DSCDESCONTOS DA CIA                                                                -0000000000000000000000000000002201605061605062016050616050600199                                                                                                         .
10000000001259021668586               20160519201605069059559709               61000BRASILIA                 6132487646  10  ASSINANTE COMUM-NAO RESID          NR                        20160402201605012016040220160501PULSO0000000+0000000000000+0000000000000  +0000000000140+0000000000158000000123206+0000000000453                                   .
300000000012620160519201605069059559709               610006132487646  NR               2016040331419JUIZ DE FORA             MG0 14BRASILTELECOM          32  32184348    000164DDDINTER-REGIAO 14                                   2134591BTARIFA REDUZIDA - TT     04+03165000000000009500421                                                            .
300000000012720160519201605069059559709               610006132487646  NR               2016040711609SOROCABA                 SP0 14BRASILTELECOM          15  32218433    000189DDDINTER-REGIAO 14                                   0953271DTARIFA DE HORARIO DE PICO04+03165000000000011000421                                                            .
300000000012820160519201605069059559709               610006132487646  NR               2016040831419JUIZ DE FORA             MG0 14BRASILTELECOM          32  32174037    000441DDDINTER-REGIAO 14                                   1958261KTARIFA NORMAL - TT       04+03165000000000025600421                                                            .
300000000012920160519201605069059559709               610006132487646  NR               2016041131419JUIZ DE FORA             MG0 14BRASILTELECOM          32  32174037    000005DDDINTER-REGIAO 14                                   0821391KTARIFA NORMAL - TT       04+03165000000000000200421                                                            .
300000000013020160519201605069059559709               610006132487646  NR               2016042011000SAO PAULO                SP0 14BRASILTELECOM          11  27590072    000038DDDINTER-REGIAO 14                                   1259021KTARIFA NORMAL - TT       04+03165000000000002200421                                                            .
300000000013120160519201605069059559709               610006132487646  NR               2016042011000SAO PAULO                SP0 14BRASILTELECOM          11  27590072    000015DDDINTER-REGIAO 14                                   1305481KTARIFA NORMAL - TT       04+03165000000000000800421                                                            .
300000000013220160519201605069059559709               610006132487646  NR               2016042211000SAO PAULO                SP0 14BRASILTELECOM          11  27590072    000001DDDINTER-REGIAO 14                                   0848331KTARIFA NORMAL - TT       04+03165000000000000200421                                                            .
300000000013320160519201605069059559709               610006132487646  NR               2016042211000SAO PAULO                SP0 14BRASILTELECOM          11  27590073    000009DDDINTER-REGIAO 14                                   0911571DTARIFA DE HORARIO DE PICO04+03165000000000000500421                                                            .
500000000013420160519201605069059559709               9021668586               610006132487646  DSCDESCONTOS DA CIA                                                                -0000000000000000000000000000047201605061605062016050616050600199                                                                                                         .
10000000001359021668586               20160519201605069060767506               61000BRASILIA                 6133661968  20  GOVERNO FEDERAL-AD-NAO RE          NR                        20160402201605012016040220160501PULSO0000000+0000000000000+0000000000000  +0000000000135+0000000000152000000123207+0000000000440                                   .
300000000013620160519201605069060767506               610006133661968  NR               2016033061000BRASILIA                 DF0 14BRASILTELECOM          61  91744284    000013DLCDLC CELULAR VC1                                   1210221KTARIFA NORMAL - TT       01+03165000000000010520301                                                            .
300000000013720160519201605069060767506               610006133661968  NR               2016040461000BRASILIA                 DF0 14BRASILTELECOM          61  91744284    000011DLCDLC CELULAR VC1                                   0958101KTARIFA NORMAL - TT       01+03165000000000008920301                                                            .
300000000013820160519201605069060767506               610006133661968  NR               2016040661000BRASILIA                 DF0 14BRASILTELECOM          61  91744284    000008DLCDLC CELULAR VC1                                   1636171KTARIFA NORMAL - TT       01+03165000000000006520301                                                            .
300000000013920160519201605069060767506               610006133661968  NR               2016040861000BRASILIA                 DF0 14BRASILTELECOM          61  91744284    000005DLCDLC CELULAR VC1                                   1246321KTARIFA NORMAL - TT       01+03165000000000004020301                                                            .
300000000014020160519201605069060767506               610006133661968  NR               2016041461000BRASILIA                 DF0 14BRASILTELECOM          61  91744284    000004DLCDLC CELULAR VC1                                   1304421KTARIFA NORMAL - TT       01+03165000000000004020301                                                            .
300000000014120160519201605069060767506               610006133661968  NR               2016041561000BRASILIA                 DF0 14BRASILTELECOM          61  91744284    000010DLCDLC CELULAR VC1                                   1621151KTARIFA NORMAL - TT       01+03165000000000008120301                                                            .
300000000014220160519201605069060767506               610006133661968  NR               2016041861000BRASILIA                 DF0 14BRASILTELECOM          61  91744284    000008DLCDLC CELULAR VC1                                   1529551KTARIFA NORMAL - TT       01+03165000000000006520301                                                            .
500000000014320160519201605069060767506               9021668586               610006133661968  DSCDESCONTOS DA CIA                                                                -0000000000000000000000000000045201605061605062016050616050600199                                                                                                         .
10000000001449021668586               20160519201605069061133489               61000BRASILIA                 6133665637  20  GOVERNO FEDERAL-AD-NAO RE          NR                        20160402201605012016040220160501PULSO0000000+0000000000000+0000000000000  +0000000002087+0000000002359000000123208+0000000006752                                   .
300000000014520160519201605069061133489               610006133665637  NR               2016040531000BELO HORIZONTE           MG0 14BRASILTELECOM          31  32139202    000022DDDINTER-REGIAO 14                                   2100351BTARIFA REDUZIDA - TT     04+03165000000000001200421                                                            .
300000000014620160519201605069061133489               610006133665637  NR               2016040631000BELO HORIZONTE           MG0 14BRASILTELECOM          31  32678514    000143DDDINTER-REGIAO 14                                   1155421MTARIFA DE HORARIO MISTO  04+03165000000000008300421                                                            .
300000000014720160519201605069061133489               610006133665637  NR               2016040631000BELO HORIZONTE           MG0 14BRASILTELECOM          31  34095050    000007DDDINTER-REGIAO 14                                   1540411DTARIFA DE HORARIO DE PICO04+03165000000000000400421                                                            .
300000000014820160519201605069061133489               610006133665637  NR               2016040631000BELO HORIZONTE           MG0 14BRASILTELECOM          31  32139202    000206DDDINTER-REGIAO 14                                   1642271DTARIFA DE HORARIO DE PICO04+03165000000000011900421                                                            .
300000000014920160519201605069061133489               610006133665637  NR               2016040731000BELO HORIZONTE           MG0 14BRASILTELECOM          31  34095037    000013DDDINTER-REGIAO 14                                   1112211DTARIFA DE HORARIO DE PICO04+03165000000000000700421                                                            .
300000000015020160519201605069061133489               610006133665637  NR               2016040731419JUIZ DE FORA             MG0 14BRASILTELECOM          32  32167932    000047DDDINTER-REGIAO 14                                   2120011BTARIFA REDUZIDA - TT     04+03165000000000002700421                                                            .
300000000015120160519201605069061133489               610006133665637  NR               2016041031419JUIZ DE FORA             MG0 14BRASILTELECOM          32  32167932    000402DDDINTER-REGIAO 14                                   2121321BTARIFA REDUZIDA - TT     04+03165000000000023400421                                                            .
300000000015220160519201605069061133489               610006133665637  NR               2016041221000RIO DE JANEIRO           RJ0 14BRASILTELECOM          21  25852033    000011DDDINTER-REGIAO 14                                   1020581DTARIFA DE HORARIO DE PICO04+03165000000000000600421                                                            .
300000000015320160519201605069061133489               610006133665637  NR               2016041231000BELO HORIZONTE           MG0 14BRASILTELECOM          31  34654500    000013DDDINTER-REGIAO 14                                   1025471DTARIFA DE HORARIO DE PICO04+03165000000000000700421                                                            .
300000000015420160519201605069061133489               610006133665637  NR               2016041231000BELO HORIZONTE           MG0 14BRASILTELECOM          31  31946400    000047DDDINTER-REGIAO 14                                   1146071DTARIFA DE HORARIO DE PICO04+03165000000000002700421                                                            .
300000000015520160519201605069061133489               610006133665637  NR               2016041221000RIO DE JANEIRO           RJ0 14BRASILTELECOM          21  22673863    000018DDDINTER-REGIAO 14                                   2105221BTARIFA REDUZIDA - TT     04+03165000000000001000421                                                            .
300000000015620160519201605069061133489               610006133665637  NR               2016041331000BELO HORIZONTE           MG0 14BRASILTELECOM          31  32139202    000094DDDINTER-REGIAO 14                                   1010131DTARIFA DE HORARIO DE PICO04+03165000000000005400421                                                            .
300000000015720160519201605069061133489               610006133665637  NR               2016041562000GOIANIA                  GO0 14BRASILTELECOM          62  32928846    000006DDDINTER-SETOR 14                                    1223401KTARIFA NORMAL - TT       03+03165000000000000300411                                                            .
300000000015820160519201605069061133489               610006133665637  NR               2016042411000SAO PAULO                SP0 14BRASILTELECOM          11  31684498    000099DDDINTER-REGIAO 14                                   2048051BTARIFA REDUZIDA - TT     04+03165000000000005700421                                                            .
300000000015920160519201605069061133489               610006133665637  NR               2016042431000BELO HORIZONTE           MG0 14BRASILTELECOM          31  32139202    000146DDDINTER-REGIAO 14                                   2129221BTARIFA REDUZIDA - TT     04+03165000000000008400421                                                            .
300000000016020160519201605069061133489               610006133665637  NR               2016042631000BELO HORIZONTE           MG0 14BRASILTELECOM          31  32139202    000024DDDINTER-REGIAO 14                                   1013231DTARIFA DE HORARIO DE PICO04+03165000000000001300421                                                            .
300000000016120160519201605069061133489               610006133665637  NR               2016042631000BELO HORIZONTE           MG0 14BRASILTELECOM          31  32139202    000009DDDINTER-REGIAO 14                                   1219481KTARIFA NORMAL - TT       04+03165000000000000500421                                                            .
300000000016220160519201605069061133489               610006133665637  NR               2016042631000BELO HORIZONTE           MG0 14BRASILTELECOM          31  32139202    000011DDDINTER-REGIAO 14                                   1849301KTARIFA NORMAL - TT       04+03165000000000000600421                                                            .
300000000016320160519201605069061133489               610006133665637  NR               2016042631000BELO HORIZONTE           MG0 14BRASILTELECOM          31  32139202    000023DDDINTER-REGIAO 14                                   2114351BTARIFA REDUZIDA - TT     04+03165000000000001300421                                                            .
300000000016420160519201605069061133489               610006133665637  NR               2016042731000BELO HORIZONTE           MG0 14BRASILTELECOM          31  32139202    000066DDDINTER-REGIAO 14                                   0915001DTARIFA DE HORARIO DE PICO04+03165000000000003800421                                                            .
300000000016520160519201605069061133489               610006133665637  NR               2016042731000BELO HORIZONTE           MG0 14BRASILTELECOM          31  31946400    000149DDDINTER-REGIAO 14                                   1444401DTARIFA DE HORARIO DE PICO04+03165000000000008600421                                                            .
300000000016620160519201605069061133489               610006133665637  NR               2016042711000SAO PAULO                SP0 14BRASILTELECOM          11  30913047    000116DDDINTER-REGIAO 14                                   1500141DTARIFA DE HORARIO DE PICO04+03165000000000006700421                                                            .
300000000016720160519201605069061133489               610006133665637  NR               2016042862000GOIANIA                  GO0 14BRASILTELECOM          62  32834173    000149DDDINTER-SETOR 14                                    1110031DTARIFA DE HORARIO DE PICO03+03165000000000008600411                                                            .
300000000016820160519201605069061133489               610006133665637  NR               2016042862000GOIANIA                  GO0 14BRASILTELECOM          62  32834173    000112DDDINTER-SETOR 14                                    1133471DTARIFA DE HORARIO DE PICO03+03165000000000006500411                                                            .
300000000016920160519201605069061133489               610006133665637  NR               2016042831000BELO HORIZONTE           MG0 14BRASILTELECOM          31  25340010    000044DDDINTER-REGIAO 14                                   1206561KTARIFA NORMAL - TT       04+03165000000000002500421                                                            .
300000000017020160519201605069061133489               610006133665637  NR               2016042831000BELO HORIZONTE           MG0 14BRASILTELECOM          31  32139202    000062DDDINTER-REGIAO 14                                   1642341DTARIFA DE HORARIO DE PICO04+03165000000000003600421                                                            .
300000000017120160519201605069061133489               610006133665637  NR               2016042931000BELO HORIZONTE           MG0 14BRASILTELECOM          31  32139202    000028DDDINTER-REGIAO 14                                   1746021DTARIFA DE HORARIO DE PICO04+03165000000000001600421                                                            .
300000000017220160519201605069061133489               610006133665637  NR               2016043011000SAO PAULO                SP0 14BRASILTELECOM          11  31684498    000137DDDINTER-REGIAO 14                                   1253081KTARIFA NORMAL - TT       04+03165000000000007900421                                                            .
300000000017320160519201605069061133489               610006133665637  NR               2016040198050IMPERATRIZ               MA0 14BRASILTELECOM          99  988344559   000002VC3INTERURBANO VC3                                   0943581KTARIFA NORMAL - TT       03+03165000000000002820201                                                            .
300000000017420160519201605069061133489               610006133665637  NR               2016040198050IMPERATRIZ               MA0 14BRASILTELECOM          99  988344559   000026VC3INTERURBANO VC3                                   0944531KTARIFA NORMAL - TT       03+03165000000000014820201                                                            .
300000000017520160519201605069061133489               610006133665637  NR               2016040198050IMPERATRIZ               MA0 14BRASILTELECOM          99  988344559   000003VC3INTERURBANO VC3                                   0947521KTARIFA NORMAL - TT       03+03165000000000002820201                                                            .
300000000017620160519201605069061133489               610006133665637  NR               2016040164000PALMAS                   TO0 14BRASILTELECOM          63  92308135    000135VC2INTERURBANO VC2                                   0950111KTARIFA NORMAL - TT       02+03165000000000077020101                                                            .
300000000017720160519201605069061133489               610006133665637  NR               2016040121000RIO DE JANEIRO           RJ0 14BRASILTELECOM          21  988769691   000325VC3INTERURBANO VC3                                   2037341MTARIFA DE HORARIO MISTO  03+03165000000000185520201                                                            .
300000000017820160519201605069061133489               610006133665637  NR               2016040462000GOIANIA                  GO0 14BRASILTELECOM          62  92500115    000006VC2INTERURBANO VC2                                   1415241KTARIFA NORMAL - TT       02+03165000000000003420101                                                            .
300000000017920160519201605069061133489               610006133665637  NR               2016040462000GOIANIA                  GO0 14BRASILTELECOM          62  91500155    000002VC2INTERURBANO VC2                                   1423581KTARIFA NORMAL - TT       02+03165000000000002820101                                                            .
300000000018020160519201605069061133489               610006133665637  NR               2016040898050IMPERATRIZ               MA0 14BRASILTELECOM          99  988344559   000027VC3INTERURBANO VC3                                   1214421KTARIFA NORMAL - TT       03+03165000000000015420201                                                            .
300000000018120160519201605069061133489               610006133665637  NR               2016041031419JUIZ DE FORA             MG0 14BRASILTELECOM          32  988339388   000003VC3INTERURBANO VC3                                   2120461BTARIFA REDUZIDA - TT     03+03165000000000002820202                                                            .
300000000018220160519201605069061133489               610006133665637  NR               2016041162000GOIANIA                  GO0 14BRASILTELECOM          62  92500155    000114VC2INTERURBANO VC2                                   1119481KTARIFA NORMAL - TT       02+03165000000000065020101                                                            .
300000000018320160519201605069061133489               610006133665637  NR               2016041321000RIO DE JANEIRO           RJ0 14BRASILTELECOM          21  999726079   000016VC3INTERURBANO VC3                                   1439181KTARIFA NORMAL - TT       03+03165000000000009120201                                                            .
300000000018420160519201605069061133489               610006133665637  NR               2016041598050IMPERATRIZ               MA0 14BRASILTELECOM          99  988344559   000160VC3INTERURBANO VC3                                   0920051KTARIFA NORMAL - TT       03+03165000000000091320201                                                            .
300000000018520160519201605069061133489               610006133665637  NR               2016041598000SAO LUIS                 MA0 14BRASILTELECOM          99  988105971   000130VC3INTERURBANO VC3                                   1225131KTARIFA NORMAL - TT       03+03165000000000074220201                                                            .
300000000018620160519201605069061133489               610006133665637  NR               2016041611000SAO PAULO                SP0 14BRASILTELECOM          11  981366027   000108VC3INTERURBANO VC3                                   1339401KTARIFA NORMAL - TT       03+03165000000000061620207                                                            .
300000000018720160519201605069061133489               610006133665637  NR               2016042183000JOAO PESSOA              PB0 14BRASILTELECOM          83  999260865   000001VC3INTERURBANO VC3                                   1041591BTARIFA REDUZIDA - TT     03+03165000000000002820202                                                            .
300000000018820160519201605069061133489               610006133665637  NR               2016042321000RIO DE JANEIRO           RJ0 14BRASILTELECOM          21  999726079   000013VC3INTERURBANO VC3                                   2009401KTARIFA NORMAL - TT       03+03165000000000007420201                                                            .
500000000018920160519201605069061133489               9021668586               610006133665637  DSCDESCONTOS DA CIA                                                                -0000000000000000000000000000704201605061605062016050616050600199                                                                                                         .
10000000001909021668586               20160519201605069073238507               61000BRASILIA                 6133455572  10  ASSINANTE COMUM-NAO RESID          NR                        20160402201605012016040220160501PULSO0000000+0000000000000+0000000000000  +0000000000729+0000000000824000000123209+0000000002358                                   .
300000000019120160519201605069073238507               610006133455572  NR               2016041384000NATAL                    RN0 14BRASILTELECOM          84  32029270    000047DDDINTER-REGIAO 14                                   1957511KTARIFA NORMAL - TT       04+03165000000000002700421                                                            .
300000000019220160519201605069073238507               610006133455572  NR               2016040484000NATAL                    RN0 14BRASILTELECOM          84  999814257   000124VC3INTERURBANO VC3                                   2121551BTARIFA REDUZIDA - TT     03+03165000000000070720202                                                            .
300000000019320160519201605069073238507               610006133455572  NR               2016040484000NATAL                    RN0 14BRASILTELECOM          84  994066664   000033VC3INTERURBANO VC3                                   2134441BTARIFA REDUZIDA - TT     03+03165000000000018820202                                                            .
300000000019420160519201605069073238507               610006133455572  NR               2016040411000SAO PAULO                SP0 14BRASILTELECOM          11  992586261   000086VC3INTERURBANO VC3                                   2139381BTARIFA REDUZIDA - TT     03+03165000000000049020208                                                            .
300000000019520160519201605069073238507               610006133455572  NR               2016041284000NATAL                    RN0 14BRASILTELECOM          84  999814257   000115VC3INTERURBANO VC3                                   2022411KTARIFA NORMAL - TT       03+03165000000000065620201                                                            .
300000000019620160519201605069073238507               610006133455572  NR               2016041384000NATAL                    RN0 14BRASILTELECOM          84  999814257   000037VC3INTERURBANO VC3                                   1916011KTARIFA NORMAL - TT       03+03165000000000021120201                                                            .
300000000019720160519201605069073238507               610006133455572  NR               2016042684000NATAL                    RN0 14BRASILTELECOM          84  999814257   000057VC3INTERURBANO VC3                                   2137031BTARIFA REDUZIDA - TT     03+03165000000000032520202                                                            .
500000000019820160519201605069073238507               9021668586               610006133455572  DSCDESCONTOS DA CIA                                                                -0000000000000000000000000000246201605061605062016050616050600199                                                                                                         .
10000000001999021668586               20160519201605069074388472               61000BRASILIA                 6133499747  20  GOVERNO FEDERAL-AD-NAO RE          NR                        20160402201605012016040220160501PULSO0000000+0000000000000+0000000000000  +0000000000007+0000000000008000000123210+0000000000026                                   .
300000000020020160519201605069074388472               610006133499747  NR               2016041421000RIO DE JANEIRO           RJ0 14BRASILTELECOM          21  981700019   000003VC3INTERURBANO VC3                                   1807521KTARIFA NORMAL - TT       03+03165000000000002820201                                                            .
500000000020120160519201605069074388472               9021668586               610006133499747  DSCDESCONTOS DA CIA                                                                -0000000000000000000000000000002201605061605062016050616050600199                                                                                                         .
10000000002029021668586               20160519201605069074447088               61000BRASILIA                 6133463662  20  GOVERNO FEDERAL-AD-NAO RE          NR                        20160402201605012016040220160501PULSO0000000+0000000000000+0000000000000  +0000000000025+0000000000028000000123211+0000000000083                                   .
300000000020320160519201605069074447088               610006133463662  NR               2016040331000BELO HORIZONTE           MG0 14BRASILTELECOM          31  32934254    000033DDDINTER-REGIAO 14                                   1108411BTARIFA REDUZIDA - TT     04+03165000000000001900421                                                            .
300000000020420160519201605069074447088               610006133463662  NR               2016041031000BELO HORIZONTE           MG0 14BRASILTELECOM          31  32934254    000014DDDINTER-REGIAO 14                                   1839291BTARIFA REDUZIDA - TT     04+03165000000000000800421                                                            .
300000000020520160519201605069074447088               610006133463662  NR               2016042631000BELO HORIZONTE           MG0 14BRASILTELECOM          31  32934254    000096DDDINTER-REGIAO 14                                   2147451BTARIFA REDUZIDA - TT     04+03165000000000005500421                                                            .
300000000020620160519201605069074447088               610006133463662  NR               2016043031000BELO HORIZONTE           MG0 14BRASILTELECOM          31  32934254    000017DDDINTER-REGIAO 14                                   1806361BTARIFA REDUZIDA - TT     04+03165000000000000900421                                                            .
500000000020720160519201605069074447088               9021668586               610006133463662  DSCDESCONTOS DA CIA                                                                -0000000000000000000000000000008201605061605062016050616050600199                                                                                                         .
10000000002089021668586               20160519201605069077810914               61000BRASILIA                 6133672343  20  GOVERNO FEDERAL-AD-NAO RE          NR                        20160402201605012016040220160501PULSO0000000+0000000000000+0000000000000  +0000000002278+0000000002574000000123212+0000000007369                                   .
300000000020920160519201605069077810914               610006133672343  NR               2016040779000ARACAJU                  SE0 14BRASILTELECOM          79  32267900    000020DDDINTER-REGIAO 14                                   1326541KTARIFA NORMAL - TT       04+03165000000000001100421                                                            .
300000000021020160519201605069077810914               610006133672343  NR               2016042741233FOZ DO IGUACU            PR0 14BRASILTELECOM          45  35756133    000016DDDINTER-SETOR 14                                    1812541KTARIFA NORMAL - TT       04+03165000000000000900411                                                            .
300000000021120160519201605069077810914               610006133672343  NR               2016033061000BRASILIA                 DF0 14BRASILTELECOM          61  84235288    000011VC1COM. LOCAL VC1                                    1025191KTARIFA NORMAL - TT       01+03165000000000008920001                                                            .
300000000021220160519201605069077810914               610006133672343  NR               2016033061000BRASILIA                 DF0 14BRASILTELECOM          61  84235288    000005VC1COM. LOCAL VC1                                    1524591KTARIFA NORMAL - TT       01+03165000000000004020001                                                            .
300000000021320160519201605069077810914               610006133672343  NR               2016033061000BRASILIA                 DF0 14BRASILTELECOM          61  99782343    000003VC1COM. LOCAL VC1                                    2114321BTARIFA REDUZIDA - TT     01+03165000000000004020002                                                            .
300000000021420160519201605069077810914               610006133672343  NR               2016033161000BRASILIA                 DF0 14BRASILTELECOM          61  96137115    000039VC1COM. LOCAL VC1                                    1313101KTARIFA NORMAL - TT       01+03165000000000031720001                                                            .
300000000021520160519201605069077810914               610006133672343  NR               2016033161000BRASILIA                 DF0 14BRASILTELECOM          61  96137115    000005VC1COM. LOCAL VC1                                    1317281KTARIFA NORMAL - TT       01+03165000000000004020001                                                            .
300000000021620160519201605069077810914               610006133672343  NR               2016033161000BRASILIA                 DF0 14BRASILTELECOM          61  96137115    000004VC1COM. LOCAL VC1                                    1318231KTARIFA NORMAL - TT       01+03165000000000004020001                                                            .
300000000021720160519201605069077810914               610006133672343  NR               2016033161000BRASILIA                 DF0 14BRASILTELECOM          61  94322261    000016VC1COM. LOCAL VC1                                    1319211KTARIFA NORMAL - TT       01+03165000000000013020001                                                            .
300000000021820160519201605069077810914               610006133672343  NR               2016040161000BRASILIA                 DF0 14BRASILTELECOM          61  98245822    000011VC1COM. LOCAL VC1                                    0739111KTARIFA NORMAL - TT       01+03165000000000008920001                                                            .
300000000021920160519201605069077810914               610006133672343  NR               2016040161000BRASILIA                 DF0 14BRASILTELECOM          61  94322261    000016VC1COM. LOCAL VC1                                    1055181KTARIFA NORMAL - TT       01+03165000000000013020001                                                            .
300000000022020160519201605069077810914               610006133672343  NR               2016040161000BRASILIA                 DF0 14BRASILTELECOM          61  94322261    000008VC1COM. LOCAL VC1                                    1153171KTARIFA NORMAL - TT       01+03165000000000006520001                                                            .
300000000022120160519201605069077810914               610006133672343  NR               2016040461000BRASILIA                 DF0 14BRASILTELECOM          61  99782343    000001VC1COM. LOCAL VC1                                    2025191KTARIFA NORMAL - TT       01+03165000000000004020001                                                            .
300000000022220160519201605069077810914               610006133672343  NR               2016040561000BRASILIA                 DF0 14BRASILTELECOM          61  92924681    000010VC1COM. LOCAL VC1                                    0818261KTARIFA NORMAL - TT       01+03165000000000008120001                                                            .
300000000022320160519201605069077810914               610006133672343  NR               2016040761000BRASILIA                 DF0 14BRASILTELECOM          61  99708385    000045VC1COM. LOCAL VC1                                    1031061KTARIFA NORMAL - TT       01+03165000000000036620001                                                            .
300000000022420160519201605069077810914               610006133672343  NR               2016040861000BRASILIA                 DF0 14BRASILTELECOM          61  99708385    000037VC1COM. LOCAL VC1                                    1133121KTARIFA NORMAL - TT       01+03165000000000030120001                                                            .
300000000022520160519201605069077810914               610006133672343  NR               2016040861000BRASILIA                 DF0 14BRASILTELECOM          61  94322261    000031VC1COM. LOCAL VC1                                    1152421KTARIFA NORMAL - TT       01+03165000000000025220001                                                            .
300000000022620160519201605069077810914               610006133672343  NR               2016040861000BRASILIA                 DF0 14BRASILTELECOM          61  84235288    000006VC1COM. LOCAL VC1                                    1524221KTARIFA NORMAL - TT       01+03165000000000004820001                                                            .
300000000022720160519201605069077810914               610006133672343  NR               2016041261000BRASILIA                 DF0 14BRASILTELECOM          61  96527816    000013VC1COM. LOCAL VC1                                    1130001KTARIFA NORMAL - TT       01+03165000000000010520001                                                            .
300000000022820160519201605069077810914               610006133672343  NR               2016041361000BRASILIA                 DF0 14BRASILTELECOM          61  96447324    000009VC1COM. LOCAL VC1                                    1042271KTARIFA NORMAL - TT       01+03165000000000007320001                                                            .
300000000022920160519201605069077810914               610006133672343  NR               2016041361000BRASILIA                 DF0 14BRASILTELECOM          61  99708385    000053VC1COM. LOCAL VC1                                    1043501KTARIFA NORMAL - TT       01+03165000000000043120001                                                            .
300000000023020160519201605069077810914               610006133672343  NR               2016041861000BRASILIA                 DF0 14BRASILTELECOM          61  96137115    000009VC1COM. LOCAL VC1                                    1151291KTARIFA NORMAL - TT       01+03165000000000007320001                                                            .
300000000023120160519201605069077810914               610006133672343  NR               2016041861000BRASILIA                 DF0 14BRASILTELECOM          61  92924681    000010VC1COM. LOCAL VC1                                    1322241KTARIFA NORMAL - TT       01+03165000000000008120001                                                            .
300000000023220160519201605069077810914               610006133672343  NR               2016041861000BRASILIA                 DF0 14BRASILTELECOM          61  99782343    000003VC1COM. LOCAL VC1                                    2013101KTARIFA NORMAL - TT       01+03165000000000004020001                                                            .
300000000023320160519201605069077810914               610006133672343  NR               2016042261000BRASILIA                 DF0 14BRASILTELECOM          61  99782343    000010VC1COM. LOCAL VC1                                    1559121KTARIFA NORMAL - TT       01+03165000000000008120001                                                            .
300000000023420160519201605069077810914               610006133672343  NR               2016042761000BRASILIA                 DF0 14BRASILTELECOM          61  96137115    000012VC1COM. LOCAL VC1                                    1139461KTARIFA NORMAL - TT       01+03165000000000009720001                                                            .
300000000023520160519201605069077810914               610006133672343  NR               2016042761000BRASILIA                 DF0 14BRASILTELECOM          61  98245822    000014VC1COM. LOCAL VC1                                    1152061KTARIFA NORMAL - TT       01+03165000000000011320001                                                            .
300000000023620160519201605069077810914               610006133672343  NR               2016042861000BRASILIA                 DF0 14BRASILTELECOM          61  96757017    000014VC1COM. LOCAL VC1                                    1054001KTARIFA NORMAL - TT       01+03165000000000011320001                                                            .
300000000023720160519201605069077810914               610006133672343  NR               2016040379000ARACAJU                  SE0 14BRASILTELECOM          79  988411010   000071VC3INTERURBANO VC3                                   1752311BTARIFA REDUZIDA - TT     03+03165000000000040520202                                                            .
300000000023820160519201605069077810914               610006133672343  NR               2016040579000ARACAJU                  SE0 14BRASILTELECOM          79  988411010   000167VC3INTERURBANO VC3                                   1821251KTARIFA NORMAL - TT       03+03165000000000095320201                                                            .
300000000023920160519201605069077810914               610006133672343  NR               2016041079000ARACAJU                  SE0 14BRASILTELECOM          79  991981558   000253VC3INTERURBANO VC3                                   1137041BTARIFA REDUZIDA - TT     03+03165000000000144420202                                                            .
300000000024020160519201605069077810914               610006133672343  NR               2016041179000ARACAJU                  SE0 14BRASILTELECOM          79  988531300   000022VC3INTERURBANO VC3                                   1704171KTARIFA NORMAL - TT       03+03165000000000012520201                                                            .
300000000024120160519201605069077810914               610006133672343  NR               2016041479000ARACAJU                  SE0 14BRASILTELECOM          79  988411010   000142VC3INTERURBANO VC3                                   1953391KTARIFA NORMAL - TT       03+03165000000000081020201                                                            .
300000000024220160519201605069077810914               610006133672343  NR               2016041679000ARACAJU                  SE0 14BRASILTELECOM          79  988411010   000114VC3INTERURBANO VC3                                   1219311KTARIFA NORMAL - TT       03+03165000000000065020201                                                            .
300000000024320160519201605069077810914               610006133672343  NR               2016041979000ARACAJU                  SE0 14BRASILTELECOM          79  988411010   000062VC3INTERURBANO VC3                                   1850031KTARIFA NORMAL - TT       03+03165000000000035320201                                                            .
300000000024420160519201605069077810914               610006133672343  NR               2016041979000ARACAJU                  SE0 14BRASILTELECOM          79  988284828   000018VC3INTERURBANO VC3                                   2002511KTARIFA NORMAL - TT       03+03165000000000010220201                                                            .
500000000024520160519201605069077810914               9021668586               610006133672343  DSCDESCONTOS DA CIA                                                                -0000000000000000000000000000768201605061605062016050616050600199                                                                                                         .
10000000002469021668586               20160519201605069085589563               61000BRASILIA                 6133227193  10  ASSINANTE COMUM-NAO RESID          NR                        20160402201605012016040220160501PULSO0000000+0000000000000+0000000000000  +0000000000257+0000000000290000000123213+0000000000834                                   .
300000000024720160519201605069085589563               610006133227193  NR               2016040362156PONTALINA                GO0 14BRASILTELECOM          64  34712262    000067DDDINTER-SETOR 14                                    1703471BTARIFA REDUZIDA - TT     03+03165000000000003900411                                                            .
300000000024820160519201605069085589563               610006133227193  NR               2016040962156PONTALINA                GO0 14BRASILTELECOM          64  34712262    000065DDDINTER-SETOR 14                                    1509151BTARIFA REDUZIDA - TT     03+03165000000000003700411                                                            .
300000000024920160519201605069085589563               610006133227193  NR               2016041062156PONTALINA                GO0 14BRASILTELECOM          64  34712262    000049DDDINTER-SETOR 14                                    1754341BTARIFA REDUZIDA - TT     03+03165000000000002800411                                                            .
300000000025020160519201605069085589563               610006133227193  NR               2016041262156PONTALINA                GO0 14BRASILTELECOM          64  34712262    000022DDDINTER-SETOR 14                                    2116401BTARIFA REDUZIDA - TT     03+03165000000000001200411                                                            .
300000000025120160519201605069085589563               610006133227193  NR               2016041262000GOIANIA                  GO0 14BRASILTELECOM          62  32330599    000065DDDINTER-SETOR 14                                    2121571BTARIFA REDUZIDA - TT     03+03165000000000003700411                                                            .
300000000025220160519201605069085589563               610006133227193  NR               2016040262000GOIANIA                  GO0 14BRASILTELECOM          62  84130963    000015VC2INTERURBANO VC2                                   2130241BTARIFA REDUZIDA - TT     02+03165000000000008520102                                                            .
300000000025320160519201605069085589563               610006133227193  NR               2016040662000GOIANIA                  GO0 14BRASILTELECOM          62  91261680    000033VC2INTERURBANO VC2                                   2227111BTARIFA REDUZIDA - TT     02+03165000000000018820102                                                            .
300000000025420160519201605069085589563               610006133227193  NR               2016040911000SAO PAULO                SP0 14BRASILTELECOM          11  970210714   000016VC3INTERURBANO VC3                                   1338281KTARIFA NORMAL - TT       03+03165000000000009120207                                                            .
300000000025520160519201605069085589563               610006133227193  NR               2016040962000GOIANIA                  GO0 14BRASILTELECOM          62  81232335    000031VC2INTERURBANO VC2                                   1505491KTARIFA NORMAL - TT       02+03165000000000017620101                                                            .
300000000025620160519201605069085589563               610006133227193  NR               2016041262000GOIANIA                  GO0 14BRASILTELECOM          62  82353737    000002VC2INTERURBANO VC2                                   2103571BTARIFA REDUZIDA - TT     02+03165000000000002820102                                                            .
300000000025720160519201605069085589563               610006133227193  NR               2016041262000GOIANIA                  GO0 14BRASILTELECOM          62  82353737    000009VC2INTERURBANO VC2                                   2106171BTARIFA REDUZIDA - TT     02+03165000000000005120102                                                            .
300000000025820160519201605069085589563               610006133227193  NR               2016041462000GOIANIA                  GO0 14BRASILTELECOM          62  91486107    000019VC2INTERURBANO VC2                                   0833431KTARIFA NORMAL - TT       02+03165000000000010820101                                                            .
300000000025920160519201605069085589563               610006133227193  NR               2016033161000BRASILIA                 DF0 14BRASILTELECOM          61  91909183    000002DLCDLC CELULAR VC1                                   1251261KTARIFA NORMAL - TT       01+03165000000000004020301                                                            .
500000000026020160519201605069085589563               9021668586               610006133227193  DSCDESCONTOS DA CIA                                                                -0000000000000000000000000000086201605061605062016050616050600199                                                                                                         .
10000000002619021668586               20160519201605069087991482               61000BRASILIA                 6133265512  10  ASSINANTE COMUM-NAO RESID          NR                        20160402201605012016040220160501PULSO0000000+0000000000000+0000000000000  +0000000000087+0000000000098000000123214+0000000000284                                   .
300000000026220160519201605069087991482               610006133265512  NR               2016040451000PORTO ALEGRE             RS0 14BRASILTELECOM          51  98449501    000011VC3INTERURBANO VC3                                   1031291KTARIFA NORMAL - TT       03+03165000000000006220205                                                            .
300000000026320160519201605069087991482               610006133265512  NR               2016041751000PORTO ALEGRE             RS0 14BRASILTELECOM          51  98449501    000044VC3INTERURBANO VC3                                   1738381BTARIFA REDUZIDA - TT     03+03165000000000025120206                                                            .
500000000026420160519201605069087991482               9021668586               610006133265512  DSCDESCONTOS DA CIA                                                                -0000000000000000000000000000029201605061605062016050616050600199                                                                                                         .
10000000002659021668586               20160519201605069087993817               61000BRASILIA                 6132259142  10  ASSINANTE COMUM-NAO RESID          NR                        20160402201605012016040220160501PULSO0000000+0000000000000+0000000000000  +0000000000189+0000000000213000000123215+0000000000612                                   .
300000000026620160519201605069087993817               610006132259142  NR               2016040421000RIO DE JANEIRO           RJ0 14BRASILTELECOM          21  22677474    000009DDDINTER-REGIAO 14                                   1743421DTARIFA DE HORARIO DE PICO04+03165000000000000500421                                                            .
300000000026720160519201605069087993817               610006132259142  NR               2016040471000SALVADOR                 BA0 14BRASILTELECOM          71  33677270    000004DDDINTER-REGIAO 14                                   1900211KTARIFA NORMAL - TT       04+03165000000000000200421                                                            .
300000000026820160519201605069087993817               610006132259142  NR               2016040421188NITEROI                  RJ0 14BRASILTELECOM          21  26110606    000122DDDINTER-REGIAO 14                                   1905371KTARIFA NORMAL - TT       04+03165000000000007100421                                                            .
300000000026920160519201605069087993817               610006132259142  NR               2016040521000RIO DE JANEIRO           RJ0 14BRASILTELECOM          21  25210170    000043DDDINTER-REGIAO 14                                   1536031DTARIFA DE HORARIO DE PICO04+03165000000000002500421                                                            .
300000000027020160519201605069087993817               610006132259142  NR               2016040621000RIO DE JANEIRO           RJ0 14BRASILTELECOM          21  22677838    000142DDDINTER-REGIAO 14                                   1804331KTARIFA NORMAL - TT       04+03165000000000008200421                                                            .
300000000027120160519201605069087993817               610006132259142  NR               2016040621000RIO DE JANEIRO           RJ0 14BRASILTELECOM          21  22677474    000015DDDINTER-REGIAO 14                                   1842541KTARIFA NORMAL - TT       04+03165000000000000800421                                                            .
300000000027220160519201605069087993817               610006132259142  NR               2016041321000RIO DE JANEIRO           RJ0 14BRASILTELECOM          21  22677474    000022DDDINTER-REGIAO 14                                   1923081KTARIFA NORMAL - TT       04+03165000000000001200421                                                            .
300000000027320160519201605069087993817               610006132259142  NR               2016041421000RIO DE JANEIRO           RJ0 14BRASILTELECOM          21  22674648    000030DDDINTER-REGIAO 14                                   0910391DTARIFA DE HORARIO DE PICO04+03165000000000001700421                                                            .
300000000027420160519201605069087993817               610006132259142  NR               2016041421000RIO DE JANEIRO           RJ0 14BRASILTELECOM          21  22674648    000014DDDINTER-REGIAO 14                                   0914091DTARIFA DE HORARIO DE PICO04+03165000000000000800421                                                            .
300000000027520160519201605069087993817               610006132259142  NR               2016042621000RIO DE JANEIRO           RJ0 14BRASILTELECOM          21  22677838    000229DDDINTER-REGIAO 14                                   1607381DTARIFA DE HORARIO DE PICO04+03165000000000013300421                                                            .
300000000027620160519201605069087993817               610006132259142  NR               2016042721000RIO DE JANEIRO           RJ0 14BRASILTELECOM          21  22677486    000051DDDINTER-REGIAO 14                                   1209381KTARIFA NORMAL - TT       04+03165000000000002900421                                                            .
300000000027720160519201605069087993817               610006132259142  NR               2016043021000RIO DE JANEIRO           RJ0 14BRASILTELECOM          21  22677474    000008DDDINTER-REGIAO 14                                   2106591BTARIFA REDUZIDA - TT     04+03165000000000000400421                                                            .
300000000027820160519201605069087993817               610006132259142  NR               2016042621000RIO DE JANEIRO           RJ0 14BRASILTELECOM          21  995701275   000033VC3INTERURBANO VC3                                   1558541KTARIFA NORMAL - TT       03+03165000000000018820201                                                            .
300000000027920160519201605069087993817               610006132259142  NR               2016042621000RIO DE JANEIRO           RJ0 14BRASILTELECOM          21  990048612   000016VC3INTERURBANO VC3                                   2053471KTARIFA NORMAL - TT       03+03165000000000009120201                                                            .
500000000028020160519201605069087993817               9021668586               610006132259142  DSCDESCONTOS DA CIA                                                                -0000000000000000000000000000063201605061605062016050616050600199                                                                                                         .
10000000002819021668586               20160519201605069092106173               61000BRASILIA                 6132451491  10  ASSINANTE COMUM-NAO RESID          NR                        20160402201605012016040220160501PULSO0000000+0000000000000+0000000000000  +0000000000848+0000000000958000000123216+0000000002745                                   .
300000000028220160519201605069092106173               610006132451491  NR               2016040471000SALVADOR                 BA0 14BRASILTELECOM          71  33677270    000002DDDINTER-REGIAO 14                                   0953091DTARIFA DE HORARIO DE PICO04+03165000000000000200421                                                            .
300000000028320160519201605069092106173               610006132451491  NR               2016040471000SALVADOR                 BA0 14BRASILTELECOM          71  33677270    000014DDDINTER-REGIAO 14                                   0953401DTARIFA DE HORARIO DE PICO04+03165000000000000800421                                                            .
300000000028420160519201605069092106173               610006132451491  NR               2016040471000SALVADOR                 BA0 14BRASILTELECOM          71  33677270    000084DDDINTER-REGIAO 14                                   2004161KTARIFA NORMAL - TT       04+03165000000000004800421                                                            .
